{
  "_format": "hh-sol-artifact-1",
  "contractName": "Merkledrop",
  "sourceName": "contracts/pangolin-token/MerkledropToStaking.sol",
  "abi": [
    {
      "inputs": [
        {
          "internalType": "address",
          "name": "airdropToken",
          "type": "address"
        },
        {
          "internalType": "address",
          "name": "stakingPositions",
          "type": "address"
        },
        {
          "internalType": "address",
          "name": "initialOwner",
          "type": "address"
        }
      ],
      "stateMutability": "nonpayable",
      "type": "constructor"
    },
    {
      "anonymous": false,
      "inputs": [
        {
          "indexed": false,
          "internalType": "address",
          "name": "account",
          "type": "address"
        },
        {
          "indexed": false,
          "internalType": "uint96",
          "name": "amount",
          "type": "uint96"
        }
      ],
      "name": "Claimed",
      "type": "event"
    },
    {
      "anonymous": false,
      "inputs": [
        {
          "indexed": false,
          "internalType": "bytes32",
          "name": "newMerkleRoot",
          "type": "bytes32"
        }
      ],
      "name": "MerkleRootSet",
      "type": "event"
    },
    {
      "anonymous": false,
      "inputs": [
        {
          "indexed": true,
          "internalType": "address",
          "name": "previousOwner",
          "type": "address"
        },
        {
          "indexed": true,
          "internalType": "address",
          "name": "newOwner",
          "type": "address"
        }
      ],
      "name": "OwnershipTransferred",
      "type": "event"
    },
    {
      "anonymous": false,
      "inputs": [
        {
          "indexed": false,
          "internalType": "address",
          "name": "account",
          "type": "address"
        }
      ],
      "name": "Paused",
      "type": "event"
    },
    {
      "anonymous": false,
      "inputs": [
        {
          "indexed": false,
          "internalType": "address",
          "name": "account",
          "type": "address"
        }
      ],
      "name": "Unpaused",
      "type": "event"
    },
    {
      "inputs": [],
      "name": "PNG",
      "outputs": [
        {
          "internalType": "contract IERC20",
          "name": "",
          "type": "address"
        }
      ],
      "stateMutability": "view",
      "type": "function"
    },
    {
      "inputs": [],
      "name": "SAR",
      "outputs": [
        {
          "internalType": "contract IPangolinStakingPositions",
          "name": "",
          "type": "address"
        }
      ],
      "stateMutability": "view",
      "type": "function"
    },
    {
      "inputs": [
        {
          "internalType": "uint96",
          "name": "amount",
          "type": "uint96"
        },
        {
          "internalType": "bytes32[]",
          "name": "merkleProof",
          "type": "bytes32[]"
        }
      ],
      "name": "claim",
      "outputs": [],
      "stateMutability": "nonpayable",
      "type": "function"
    },
    {
      "inputs": [
        {
          "internalType": "address",
          "name": "",
          "type": "address"
        }
      ],
      "name": "claimedAmounts",
      "outputs": [
        {
          "internalType": "uint96",
          "name": "",
          "type": "uint96"
        }
      ],
      "stateMutability": "view",
      "type": "function"
    },
    {
      "inputs": [],
      "name": "merkleRoot",
      "outputs": [
        {
          "internalType": "bytes32",
          "name": "",
          "type": "bytes32"
        }
      ],
      "stateMutability": "view",
      "type": "function"
    },
    {
      "inputs": [],
      "name": "owner",
      "outputs": [
        {
          "internalType": "address",
          "name": "",
          "type": "address"
        }
      ],
      "stateMutability": "view",
      "type": "function"
    },
    {
      "inputs": [],
      "name": "pause",
      "outputs": [],
      "stateMutability": "nonpayable",
      "type": "function"
    },
    {
      "inputs": [],
      "name": "paused",
      "outputs": [
        {
          "internalType": "bool",
          "name": "",
          "type": "bool"
        }
      ],
      "stateMutability": "view",
      "type": "function"
    },
    {
      "inputs": [
        {
          "internalType": "contract IERC20",
          "name": "token",
          "type": "address"
        },
        {
          "internalType": "uint256",
          "name": "amount",
          "type": "uint256"
        }
      ],
      "name": "recover",
      "outputs": [],
      "stateMutability": "nonpayable",
      "type": "function"
    },
    {
      "inputs": [],
      "name": "renounceOwnership",
      "outputs": [],
      "stateMutability": "nonpayable",
      "type": "function"
    },
    {
      "inputs": [
        {
          "internalType": "bytes32",
          "name": "newMerkleRoot",
          "type": "bytes32"
        }
      ],
      "name": "setMerkleRoot",
      "outputs": [],
      "stateMutability": "nonpayable",
      "type": "function"
    },
    {
      "inputs": [
        {
          "internalType": "address",
          "name": "newOwner",
          "type": "address"
        }
      ],
      "name": "transferOwnership",
      "outputs": [],
      "stateMutability": "nonpayable",
      "type": "function"
    },
    {
      "inputs": [],
      "name": "unpause",
      "outputs": [],
      "stateMutability": "nonpayable",
      "type": "function"
    }
  ],
  "bytecode": "0x60c06040523480156200001157600080fd5b506040516200101d3803806200101d833981016040819052620000349162000330565b6200003f3362000208565b6000805460ff60a01b191681556001600160a01b0384163b9003620000ab5760405162461bcd60e51b815260206004820152601560248201527f696e76616c696420746f6b656e2061646472657373000000000000000000000060448201526064015b60405180910390fd5b816001600160a01b03163b600003620001075760405162461bcd60e51b815260206004820152601760248201527f696e76616c6964207374616b696e6720616464726573730000000000000000006044820152606401620000a2565b6001600160a01b0381166200015f5760405162461bcd60e51b815260206004820152601560248201527f696e76616c696420696e697469616c206f776e657200000000000000000000006044820152606401620000a2565b6200016a8162000208565b60405163095ea7b360e01b81526001600160a01b038381166004830152600019602483015284169063095ea7b3906044016020604051808303816000875af1158015620001bb573d6000803e3d6000fd5b505050506040513d601f19601f82011682018060405250810190620001e191906200037a565b506001600160a01b03808416608052821660a052620001ff62000258565b505050620003a5565b600080546001600160a01b038381166001600160a01b0319831681178455604051919092169283917f8be0079c531659141344cd1fd0a4f28419497f9722a3daafe3b4186f6b6457e09190a35050565b62000262620002bb565b6000805460ff60a01b1916600160a01b1790557f62e78cea01bee320cd4e420270b5ea74000d11b0c9f74754ebdbfc544b05a2586200029e3390565b6040516001600160a01b03909116815260200160405180910390a1565b620002cf600054600160a01b900460ff1690565b15620003115760405162461bcd60e51b815260206004820152601060248201526f14185d5cd8589b194e881c185d5cd95960821b6044820152606401620000a2565b565b80516001600160a01b03811681146200032b57600080fd5b919050565b6000806000606084860312156200034657600080fd5b620003518462000313565b9250620003616020850162000313565b9150620003716040850162000313565b90509250925092565b6000602082840312156200038d57600080fd5b815180151581146200039e57600080fd5b9392505050565b60805160a051610c44620003d960003960008181610105015281816105da0152610685015260006102100152610c446000f3fe608060405234801561001057600080fd5b50600436106100df5760003560e01c8063715018a61161008c5780638da5cb5b116100665780638da5cb5b146101e757806391a862fa146101f85780639bab65b81461020b578063f2fde38b1461023257600080fd5b8063715018a6146101c45780637cb64759146101cc5780638456cb59146101df57600080fd5b80635705ae43116100bd5780635705ae43146101495780635c975abb1461015c57806371417b321461017957600080fd5b80632eb4a7ab146100e457806333c88ff6146101005780633f4ba83a1461013f575b600080fd5b6100ed60025481565b6040519081526020015b60405180910390f35b6101277f000000000000000000000000000000000000000000000000000000000000000081565b6040516001600160a01b0390911681526020016100f7565b610147610245565b005b610147610157366004610a74565b6102ae565b600054600160a01b900460ff1660405190151581526020016100f7565b6101a7610187366004610aa0565b6001602052600090815260409020546bffffffffffffffffffffffff1681565b6040516bffffffffffffffffffffffff90911681526020016100f7565b610147610398565b6101476101da366004610abd565b6103aa565b6101476103f5565b6000546001600160a01b0316610127565b610147610206366004610ad6565b610405565b6101277f000000000000000000000000000000000000000000000000000000000000000081565b610147610240366004610aa0565b610738565b61024d6107c8565b6002546000036102a45760405162461bcd60e51b815260206004820152601360248201527f6d65726b6c6520726f6f74206e6f74207365740000000000000000000000000060448201526064015b60405180910390fd5b6102ac610822565b565b6102b6610877565b6102be6107c8565b6040517fa9059cbb000000000000000000000000000000000000000000000000000000008152336004820152602481018290526001600160a01b0383169063a9059cbb906044016020604051808303816000875af1158015610324573d6000803e3d6000fd5b505050506040513d601f19601f820116820180604052508101906103489190610b6f565b6103945760405162461bcd60e51b815260206004820152600f60248201527f7472616e73666572206661696c65640000000000000000000000000000000000604482015260640161029b565b5050565b6103a06107c8565b6102ac60006108d0565b6103b2610877565b6103ba6107c8565b60028190556040518181527f42cbc405e4dbf1b691e85b9a34b08ecfcf7a9ad9078bf4d645ccfa1fac11c10b9060200160405180910390a150565b6103fd6107c8565b6102ac61092d565b61040d610970565b336000908152600160205260409020546bffffffffffffffffffffffff908116908416811061047e5760405162461bcd60e51b815260206004820152601060248201527f6e6f7468696e6720746f20636c61696d00000000000000000000000000000000604482015260640161029b565b604080516bffffffffffffffffffffffff193360601b16602082015273ffffffffffffffffffffffffffffffffffffffff1960a087901b166034820152600091016040516020818303038152906040526104d790610b91565b905061051a8484808060200260200160405190810160405280939291908181526020018383602002808284376000920191909152505060025491508490506109ca565b6105665760405162461bcd60e51b815260206004820152600d60248201527f696e76616c69642070726f6f6600000000000000000000000000000000000000604482015260640161029b565b3360009081526001602052604080822080546bffffffffffffffffffffffff19166bffffffffffffffffffffffff8981169190911790915590517fa0712d68000000000000000000000000000000000000000000000000000000008152968490039081166004880152956001600160a01b037f0000000000000000000000000000000000000000000000000000000000000000169063a0712d68906024016020604051808303816000875af1158015610623573d6000803e3d6000fd5b505050506040513d601f19601f820116820180604052508101906106479190610bb8565b6040517f42842e0e000000000000000000000000000000000000000000000000000000008152306004820152336024820152604481018290529091507f00000000000000000000000000000000000000000000000000000000000000006001600160a01b0316906342842e0e90606401600060405180830381600087803b1580156106d157600080fd5b505af11580156106e5573d6000803e3d6000fd5b5050604080513381526bffffffffffffffffffffffff8a1660208201527f1f1f3fe51e971f9768a1b748e2a520609176b6de88aa4d9c02ace9fb9177189f935001905060405180910390a1505050505050565b6107406107c8565b6001600160a01b0381166107bc5760405162461bcd60e51b815260206004820152602660248201527f4f776e61626c653a206e6577206f776e657220697320746865207a65726f206160448201527f6464726573730000000000000000000000000000000000000000000000000000606482015260840161029b565b6107c5816108d0565b50565b6000546001600160a01b031633146102ac5760405162461bcd60e51b815260206004820181905260248201527f4f776e61626c653a2063616c6c6572206973206e6f7420746865206f776e6572604482015260640161029b565b61082a610877565b6000805460ff60a01b191690557f5db9ee0a495bf2e6ff9c91a7834c1ba4fdd244a5e8aa4e537bd38aeae4b073aa335b6040516001600160a01b03909116815260200160405180910390a1565b600054600160a01b900460ff166102ac5760405162461bcd60e51b815260206004820152601460248201527f5061757361626c653a206e6f7420706175736564000000000000000000000000604482015260640161029b565b600080546001600160a01b0383811673ffffffffffffffffffffffffffffffffffffffff19831681178455604051919092169283917f8be0079c531659141344cd1fd0a4f28419497f9722a3daafe3b4186f6b6457e09190a35050565b610935610970565b6000805460ff60a01b1916600160a01b1790557f62e78cea01bee320cd4e420270b5ea74000d11b0c9f74754ebdbfc544b05a25861085a3390565b600054600160a01b900460ff16156102ac5760405162461bcd60e51b815260206004820152601060248201527f5061757361626c653a2070617573656400000000000000000000000000000000604482015260640161029b565b6000826109d785846109e0565b14949350505050565b600081815b8451811015610a2557610a1182868381518110610a0457610a04610bd1565b6020026020010151610a2d565b915080610a1d81610be7565b9150506109e5565b509392505050565b6000818310610a49576000828152602084905260409020610a58565b60008381526020839052604090205b9392505050565b6001600160a01b03811681146107c557600080fd5b60008060408385031215610a8757600080fd5b8235610a9281610a5f565b946020939093013593505050565b600060208284031215610ab257600080fd5b8135610a5881610a5f565b600060208284031215610acf57600080fd5b5035919050565b600080600060408486031215610aeb57600080fd5b83356bffffffffffffffffffffffff81168114610b0757600080fd5b9250602084013567ffffffffffffffff80821115610b2457600080fd5b818601915086601f830112610b3857600080fd5b813581811115610b4757600080fd5b8760208260051b8501011115610b5c57600080fd5b6020830194508093505050509250925092565b600060208284031215610b8157600080fd5b81518015158114610a5857600080fd5b80516020808301519190811015610bb2576000198160200360031b1b821691505b50919050565b600060208284031215610bca57600080fd5b5051919050565b634e487b7160e01b600052603260045260246000fd5b600060018201610c0757634e487b7160e01b600052601160045260246000fd5b506001019056fea2646970667358221220efb2647a264fb5d0b370fa690fe6449a4070e1eab95bab5af331efd9aa558c9b64736f6c634300080f0033",
  "linkReferences": {},
  "deployedLinkReferences": {}
}