{
  "_format": "hh-sol-artifact-1",
  "contractName": "PangolinBridgeMigrationRouter",
  "sourceName": "contracts/pangolin-periphery/PangolinBridgeMigrationRouter.sol",
  "abi": [
    {
      "inputs": [],
      "stateMutability": "nonpayable",
      "type": "constructor"
    },
    {
      "inputs": [
        {
          "internalType": "address",
          "name": "account",
          "type": "address"
        }
      ],
      "name": "addAdmin",
      "outputs": [],
      "stateMutability": "nonpayable",
      "type": "function"
    },
    {
      "inputs": [
        {
          "internalType": "address",
          "name": "token",
          "type": "address"
        },
        {
          "internalType": "address",
          "name": "migrator",
          "type": "address"
        }
      ],
      "name": "addMigrator",
      "outputs": [],
      "stateMutability": "nonpayable",
      "type": "function"
    },
    {
      "inputs": [
        {
          "internalType": "address",
          "name": "",
          "type": "address"
        }
      ],
      "name": "bridgeMigrator",
      "outputs": [
        {
          "internalType": "address",
          "name": "",
          "type": "address"
        }
      ],
      "stateMutability": "view",
      "type": "function"
    },
    {
      "inputs": [
        {
          "internalType": "address",
          "name": "liquidityPairFrom",
          "type": "address"
        },
        {
          "internalType": "address",
          "name": "liquidityPairTo",
          "type": "address"
        },
        {
          "internalType": "uint256",
          "name": "amount",
          "type": "uint256"
        }
      ],
      "name": "calculateChargeBack",
      "outputs": [
        {
          "internalType": "uint256",
          "name": "amount0",
          "type": "uint256"
        },
        {
          "internalType": "uint256",
          "name": "amount1",
          "type": "uint256"
        }
      ],
      "stateMutability": "view",
      "type": "function"
    },
    {
      "inputs": [
        {
          "internalType": "address",
          "name": "account",
          "type": "address"
        }
      ],
      "name": "isAdmin",
      "outputs": [
        {
          "internalType": "bool",
          "name": "",
          "type": "bool"
        }
      ],
      "stateMutability": "view",
      "type": "function"
    },
    {
      "inputs": [
        {
          "internalType": "address",
          "name": "liquidityPairFrom",
          "type": "address"
        },
        {
          "internalType": "address",
          "name": "liquidityPairTo",
          "type": "address"
        },
        {
          "internalType": "address",
          "name": "to",
          "type": "address"
        },
        {
          "internalType": "uint256",
          "name": "amount",
          "type": "uint256"
        },
        {
          "internalType": "uint256",
          "name": "deadline",
          "type": "uint256"
        }
      ],
      "name": "migrateLiquidity",
      "outputs": [],
      "stateMutability": "nonpayable",
      "type": "function"
    },
    {
      "inputs": [
        {
          "internalType": "address",
          "name": "liquidityPairFrom",
          "type": "address"
        },
        {
          "internalType": "address",
          "name": "liquidityPairTo",
          "type": "address"
        },
        {
          "internalType": "address",
          "name": "to",
          "type": "address"
        },
        {
          "internalType": "uint256",
          "name": "amount",
          "type": "uint256"
        },
        {
          "internalType": "uint256",
          "name": "deadline",
          "type": "uint256"
        },
        {
          "internalType": "uint8",
          "name": "v",
          "type": "uint8"
        },
        {
          "internalType": "bytes32",
          "name": "r",
          "type": "bytes32"
        },
        {
          "internalType": "bytes32",
          "name": "s",
          "type": "bytes32"
        }
      ],
      "name": "migrateLiquidityWithPermit",
      "outputs": [],
      "stateMutability": "nonpayable",
      "type": "function"
    },
    {
      "inputs": [
        {
          "internalType": "address",
          "name": "token",
          "type": "address"
        },
        {
          "internalType": "address",
          "name": "to",
          "type": "address"
        },
        {
          "internalType": "uint256",
          "name": "amount",
          "type": "uint256"
        },
        {
          "internalType": "uint256",
          "name": "deadline",
          "type": "uint256"
        }
      ],
      "name": "migrateToken",
      "outputs": [],
      "stateMutability": "nonpayable",
      "type": "function"
    },
    {
      "inputs": [
        {
          "internalType": "address",
          "name": "account",
          "type": "address"
        }
      ],
      "name": "removeAdmin",
      "outputs": [],
      "stateMutability": "nonpayable",
      "type": "function"
    }
  ],
  "bytecode": "0x60806040523480156200001157600080fd5b506200002d3360006200003360201b62000a451790919060201c565b62000120565b6200003f8282620000b7565b1562000092576040805162461bcd60e51b815260206004820152601f60248201527f526f6c65733a206163636f756e7420616c72656164792068617320726f6c6500604482015290519081900360640190fd5b6001600160a01b0316600090815260209190915260409020805460ff19166001179055565b60006001600160a01b038216620001005760405162461bcd60e51b8152600401808060200182810382526022815260200180620027cd6022913960400191505060405180910390fd5b506001600160a01b03166000908152602091909152604090205460ff1690565b61269d80620001306000396000f3fe608060405234801561001057600080fd5b50600436106100a35760003560e01c80637048027511610076578063b032fff71161005b578063b032fff7146101ef578063f057d23714610247578063ffc5059414610283576100a3565b8063704802751461017a57806399a0df82146101a0576100a3565b80631785f53c146100a857806324d7806c146100d0578063495952f51461010a5780634c389d261461014c575b600080fd5b6100ce600480360360208110156100be57600080fd5b50356001600160a01b03166102c5565b005b6100f6600480360360208110156100e657600080fd5b50356001600160a01b0316610319565b604080519115158252519081900360200190f35b6100ce600480360360a081101561012057600080fd5b506001600160a01b0381358116916020810135821691604082013516906060810135906080013561032b565b6100ce6004803603604081101561016257600080fd5b506001600160a01b038135811691602001351661037f565b6100ce6004803603602081101561019057600080fd5b50356001600160a01b03166104cf565b6101d6600480360360608110156101b657600080fd5b506001600160a01b03813581169160208101359091169060400135610520565b6040805192835260208301919091528051918290030190f35b6100ce600480360361010081101561020657600080fd5b506001600160a01b03813581169160208101358216916040820135169060608101359060808101359060ff60a0820135169060c08101359060e00135610857565b6100ce6004803603608081101561025d57600080fd5b506001600160a01b03813581169160208101359091169060408101359060600135610951565b6102a96004803603602081101561029957600080fd5b50356001600160a01b0316610a2a565b604080516001600160a01b039092168252519081900360200190f35b6102d0600033610ac6565b61030b5760405162461bcd60e51b815260040180806020018281038252602b815260200180612570602b913960400191505060405180910390fd5b610316600082610b2d565b50565b60006103258183610ac6565b92915050565b804281101561036b5760405162461bcd60e51b81526004018080602001828103825260268152602001806123966026913960400191505060405180910390fd5b61037786868686610b94565b505050505050565b61038a600033610ac6565b6103c55760405162461bcd60e51b815260040180806020018281038252602b815260200180612570602b913960400191505060405180910390fd5b6000816001600160a01b031663ab32dbb7846040518263ffffffff1660e01b815260040180826001600160a01b0316815260200191505060206040518083038186803b15801561041457600080fd5b505afa158015610428573d6000803e3d6000fd5b505050506040513d602081101561043e57600080fd5b505190508061047e5760405162461bcd60e51b81526004018080602001828103825260348152602001806124c36034913960400191505060405180910390fd5b6104888383611407565b506001600160a01b03918216600090815260016020526040902080547fffffffffffffffffffffffff00000000000000000000000000000000000000001691909216179055565b6104da600033610ac6565b6105155760405162461bcd60e51b815260040180806020018281038252602b815260200180612570602b913960400191505060405180910390fd5b610316600082610a45565b6000806000806105308786611490565b91509150856001600160a01b0316630dfe16816040518163ffffffff1660e01b815260040160206040518083038186803b15801561056d57600080fd5b505afa158015610581573d6000803e3d6000fd5b505050506040513d602081101561059757600080fd5b505160408051630dfe168160e01b815290516001600160a01b03928316928a1691630dfe1681916004808301926020929190829003018186803b1580156105dd57600080fd5b505afa1580156105f1573d6000803e3d6000fd5b505050506040513d602081101561060757600080fd5b50516001600160a01b0316148015906106fc5750856001600160a01b031663d21220a76040518163ffffffff1660e01b815260040160206040518083038186803b15801561065457600080fd5b505afa158015610668573d6000803e3d6000fd5b505050506040513d602081101561067e57600080fd5b50516040805163d21220a760e01b815290516001600160a01b03928316928a169163d21220a7916004808301926020929190829003018186803b1580156106c457600080fd5b505afa1580156106d8573d6000803e3d6000fd5b505050506040513d60208110156106ee57600080fd5b50516001600160a01b031614155b1561070357905b600080876001600160a01b0316630902f1ac6040518163ffffffff1660e01b815260040160606040518083038186803b15801561073f57600080fd5b505afa158015610753573d6000803e3d6000fd5b505050506040513d606081101561076957600080fd5b5080516020909101519092509050836000610791826001600160701b038087169086166115d5565b9050848111156107be578490506107bb85846001600160701b0316866001600160701b03166115d5565b91505b6107fc6040518060400160405280601081526020017f6368617267656261636b2073746174730000000000000000000000000000000081525061167b565b6108058661173a565b61080e8561173a565b6108178261173a565b6108208161173a565b610832846001600160701b031661173a565b610844836001600160701b031661173a565b9403999390920397509195505050505050565b83428110156108975760405162461bcd60e51b81526004018080602001828103825260268152602001806123966026913960400191505060405180910390fd5b604080517fd505accf000000000000000000000000000000000000000000000000000000008152336004820152306024820152604481018890526064810187905260ff8616608482015260a4810185905260c4810184905290516001600160a01b038b169163d505accf9160e480830192600092919082900301818387803b15801561092257600080fd5b505af1158015610936573d6000803e3d6000fd5b5050505061094689898989610b94565b505050505050505050565b80428110156109915760405162461bcd60e51b81526004018080602001828103825260268152602001806123966026913960400191505060405180910390fd5b6001600160a01b03858116600090815260016020526040902054166109e75760405162461bcd60e51b81526004018080602001828103825260368152602001806125186036913960400191505060405180910390fd5b6109f385333086611794565b6109fd8584611901565b6001600160a01b03808616600090815260016020526040902054610a2391168585611a6e565b5050505050565b6001602052600090815260409020546001600160a01b031681565b610a4f8282610ac6565b15610aa1576040805162461bcd60e51b815260206004820152601f60248201527f526f6c65733a206163636f756e7420616c72656164792068617320726f6c6500604482015290519081900360640190fd5b6001600160a01b0316600090815260209190915260409020805460ff19166001179055565b60006001600160a01b038216610b0d5760405162461bcd60e51b815260040180806020018281038252602281526020018061254e6022913960400191505060405180910390fd5b506001600160a01b03166000908152602091909152604090205460ff1690565b610b378282610ac6565b610b725760405162461bcd60e51b81526004018080602001828103825260218152602001806124f76021913960400191505060405180910390fd5b6001600160a01b0316600090815260209190915260409020805460ff19169055565b610b9e8484611be9565b6000846001600160a01b0316630dfe16816040518163ffffffff1660e01b815260040160206040518083038186803b158015610bd957600080fd5b505afa158015610bed573d6000803e3d6000fd5b505050506040513d6020811015610c0357600080fd5b505160408051630dfe168160e01b815290519192506001600160a01b03861691630dfe168191600480820192602092909190829003018186803b158015610c4957600080fd5b505afa158015610c5d573d6000803e3d6000fd5b505050506040513d6020811015610c7357600080fd5b505160408051630dfe168160e01b815290516001600160a01b0392831692881691630dfe1681916004808301926020929190829003018186803b158015610cb957600080fd5b505afa158015610ccd573d6000803e3d6000fd5b505050506040513d6020811015610ce357600080fd5b50516001600160a01b03161480610dd55750836001600160a01b031663d21220a76040518163ffffffff1660e01b815260040160206040518083038186803b158015610d2e57600080fd5b505afa158015610d42573d6000803e3d6000fd5b505050506040513d6020811015610d5857600080fd5b505160408051630dfe168160e01b815290516001600160a01b0392831692881691630dfe1681916004808301926020929190829003018186803b158015610d9e57600080fd5b505afa158015610db2573d6000803e3d6000fd5b505050506040513d6020811015610dc857600080fd5b50516001600160a01b0316145b15610e4257846001600160a01b031663d21220a76040518163ffffffff1660e01b815260040160206040518083038186803b158015610e1357600080fd5b505afa158015610e27573d6000803e3d6000fd5b505050506040513d6020811015610e3d57600080fd5b505190505b6001600160a01b038082166000908152600160205260409020541680610e995760405162461bcd60e51b81526004018080602001828103825260438152602001806124806043913960600191505060405180910390fd5b846001600160a01b0316630dfe16816040518163ffffffff1660e01b815260040160206040518083038186803b158015610ed257600080fd5b505afa158015610ee6573d6000803e3d6000fd5b505050506040513d6020811015610efc57600080fd5b50516001600160a01b0382811691161480610f865750846001600160a01b031663d21220a76040518163ffffffff1660e01b815260040160206040518083038186803b158015610f4b57600080fd5b505afa158015610f5f573d6000803e3d6000fd5b505050506040513d6020811015610f7557600080fd5b50516001600160a01b038281169116145b610fc15760405162461bcd60e51b815260040180806020018281038252604581526020018061243b6045913960600191505060405180910390fd5b600080610fce8886612090565b915091506000829050886001600160a01b0316630dfe16816040518163ffffffff1660e01b815260040160206040518083038186803b15801561101057600080fd5b505afa158015611024573d6000803e3d6000fd5b505050506040513d602081101561103a57600080fd5b50516001600160a01b038681169116146110515750805b61105b8582611901565b50866001600160a01b0316630dfe16816040518163ffffffff1660e01b815260040160206040518083038186803b15801561109557600080fd5b505afa1580156110a9573d6000803e3d6000fd5b505050506040513d60208110156110bf57600080fd5b505160408051630dfe168160e01b815290516001600160a01b03928316928b1691630dfe1681916004808301926020929190829003018186803b15801561110557600080fd5b505afa158015611119573d6000803e3d6000fd5b505050506040513d602081101561112f57600080fd5b50516001600160a01b0316148015906112245750866001600160a01b031663d21220a76040518163ffffffff1660e01b815260040160206040518083038186803b15801561117c57600080fd5b505afa158015611190573d6000803e3d6000fd5b505050506040513d60208110156111a657600080fd5b50516040805163d21220a760e01b815290516001600160a01b03928316928b169163d21220a7916004808301926020929190829003018186803b1580156111ec57600080fd5b505afa158015611200573d6000803e3d6000fd5b505050506040513d602081101561121657600080fd5b50516001600160a01b031614155b1561122b57905b60008061130b898a6001600160a01b0316630dfe16816040518163ffffffff1660e01b815260040160206040518083038186803b15801561126b57600080fd5b505afa15801561127f573d6000803e3d6000fd5b505050506040513d602081101561129557600080fd5b50516040805163d21220a760e01b815290516001600160a01b038e169163d21220a7916004808301926020929190829003018186803b1580156112d757600080fd5b505afa1580156112eb573d6000803e3d6000fd5b505050506040513d602081101561130157600080fd5b505187878d61213a565b509092509050811561138657611386896001600160a01b0316630dfe16816040518163ffffffff1660e01b815260040160206040518083038186803b15801561135357600080fd5b505afa158015611367573d6000803e3d6000fd5b505050506040513d602081101561137d57600080fd5b50518984611a6e565b80156113fb576113fb896001600160a01b031663d21220a76040518163ffffffff1660e01b815260040160206040518083038186803b1580156113c857600080fd5b505afa1580156113dc573d6000803e3d6000fd5b505050506040513d60208110156113f257600080fd5b50518983611a6e565b50505050505050505050565b816001600160a01b031663095ea7b3826000196040518363ffffffff1660e01b815260040180836001600160a01b0316815260200182815260200192505050602060405180830381600087803b15801561146057600080fd5b505af1158015611474573d6000803e3d6000fd5b505050506040513d602081101561148a57600080fd5b50505050565b600080600080856001600160a01b0316630902f1ac6040518163ffffffff1660e01b815260040160606040518083038186803b1580156114cf57600080fd5b505afa1580156114e3573d6000803e3d6000fd5b505050506040513d60608110156114f957600080fd5b508051602091820151604080517f18160ddd00000000000000000000000000000000000000000000000000000000815290519295509093506000926001600160a01b038a16926318160ddd926004808201939291829003018186803b15801561156157600080fd5b505afa158015611575573d6000803e3d6000fd5b505050506040513d602081101561158b57600080fd5b50519050806115a3876001600160701b0386166122aa565b816115aa57fe5b049450806115c1876001600160701b0385166122aa565b816115c857fe5b0493505050509250929050565b60008084116116155760405162461bcd60e51b81526004018080602001828103825260248152602001806123726024913960400191505060405180910390fd5b6000831180156116255750600082115b6116605760405162461bcd60e51b81526004018080602001828103825260278152602001806126416027913960400191505060405180910390fd5b8261166b85846122aa565b8161167257fe5b04949350505050565b610316816040516024018080602001828103825283818151815260200191508051906020019080838360005b838110156116bf5781810151838201526020016116a7565b50505050905090810190601f1680156116ec5780820380516001836020036101000a031916815260200191505b5060408051601f198184030181529190526020810180516001600160e01b03167f41304fac000000000000000000000000000000000000000000000000000000001790529250612316915050565b6040805160248082018490528251808303909101815260449091019091526020810180516001600160e01b03167ff5b1bba90000000000000000000000000000000000000000000000000000000017905261031690612316565b604080516001600160a01b0385811660248301528481166044830152606480830185905283518084039091018152608490920183526020820180516001600160e01b03167f23b872dd00000000000000000000000000000000000000000000000000000000178152925182516000948594938a169392918291908083835b602083106118315780518252601f199092019160209182019101611812565b6001836020036101000a0380198251168184511680821785525050505050509050019150506000604051808303816000865af19150503d8060008114611893576040519150601f19603f3d011682016040523d82523d6000602084013e611898565b606091505b50915091508180156118c65750805115806118c657508080602001905160208110156118c357600080fd5b50515b6103775760405162461bcd60e51b81526004018080602001828103825260248152602001806125df6024913960400191505060405180910390fd5b6001600160a01b038083166000818152600160205260408082205481517fd004f0f7000000000000000000000000000000000000000000000000000000008152600481019490945260248401869052905193169263d004f0f792604480820193929182900301818387803b15801561197857600080fd5b505af115801561198c573d6000803e3d6000fd5b5050506001600160a01b038084166000908152600160209081526040918290205482517f70a0823100000000000000000000000000000000000000000000000000000000815230600482015292518695509316926370a08231926024808201939291829003018186803b158015611a0257600080fd5b505afa158015611a16573d6000803e3d6000fd5b505050506040513d6020811015611a2c57600080fd5b505114611a6a5760405162461bcd60e51b815260040180806020018281038252603e815260200180612603603e913960400191505060405180910390fd5b5050565b604080516001600160a01b038481166024830152604480830185905283518084039091018152606490920183526020820180516001600160e01b03167fa9059cbb000000000000000000000000000000000000000000000000000000001781529251825160009485949389169392918291908083835b60208310611b035780518252601f199092019160209182019101611ae4565b6001836020036101000a0380198251168184511680821785525050505050509050019150506000604051808303816000865af19150503d8060008114611b65576040519150601f19603f3d011682016040523d82523d6000602084013e611b6a565b606091505b5091509150818015611b98575080511580611b985750808060200190516020811015611b9557600080fd5b50515b610a23576040805162461bcd60e51b815260206004820152601f60248201527f5472616e7366657248656c7065723a205452414e534645525f4641494c454400604482015290519081900360640190fd5b6001600160a01b038216611c2e5760405162461bcd60e51b815260040180806020018281038252603a815260200180612338603a913960400191505060405180910390fd5b6001600160a01b038216611c735760405162461bcd60e51b81526004018080602001828103825260388152602001806123bc6038913960400191505060405180910390fd5b806001600160a01b0316826001600160a01b03161415611cc45760405162461bcd60e51b81526004018080602001828103825260478152602001806123f46047913960600191505060405180910390fd5b806001600160a01b0316630dfe16816040518163ffffffff1660e01b815260040160206040518083038186803b158015611cfd57600080fd5b505afa158015611d11573d6000803e3d6000fd5b505050506040513d6020811015611d2757600080fd5b505160408051630dfe168160e01b815290516001600160a01b0392831692851691630dfe1681916004808301926020929190829003018186803b158015611d6d57600080fd5b505afa158015611d81573d6000803e3d6000fd5b505050506040513d6020811015611d9757600080fd5b50516001600160a01b03161480611e895750806001600160a01b031663d21220a76040518163ffffffff1660e01b815260040160206040518083038186803b158015611de257600080fd5b505afa158015611df6573d6000803e3d6000fd5b505050506040513d6020811015611e0c57600080fd5b505160408051630dfe168160e01b815290516001600160a01b0392831692851691630dfe1681916004808301926020929190829003018186803b158015611e5257600080fd5b505afa158015611e66573d6000803e3d6000fd5b505050506040513d6020811015611e7c57600080fd5b50516001600160a01b0316145b80611f6f5750806001600160a01b0316630dfe16816040518163ffffffff1660e01b815260040160206040518083038186803b158015611ec857600080fd5b505afa158015611edc573d6000803e3d6000fd5b505050506040513d6020811015611ef257600080fd5b50516040805163d21220a760e01b815290516001600160a01b039283169285169163d21220a7916004808301926020929190829003018186803b158015611f3857600080fd5b505afa158015611f4c573d6000803e3d6000fd5b505050506040513d6020811015611f6257600080fd5b50516001600160a01b0316145b806120555750806001600160a01b031663d21220a76040518163ffffffff1660e01b815260040160206040518083038186803b158015611fae57600080fd5b505afa158015611fc2573d6000803e3d6000fd5b505050506040513d6020811015611fd857600080fd5b50516040805163d21220a760e01b815290516001600160a01b039283169285169163d21220a7916004808301926020929190829003018186803b15801561201e57600080fd5b505afa158015612032573d6000803e3d6000fd5b505050506040513d602081101561204857600080fd5b50516001600160a01b0316145b611a6a5760405162461bcd60e51b815260040180806020018281038252604481526020018061259b6044913960600191505060405180910390fd5b60008061209f84338686611794565b604080517f89afcb4400000000000000000000000000000000000000000000000000000000815230600482015281516001600160a01b038716926389afcb4492602480820193918290030181600087803b1580156120fc57600080fd5b505af1158015612110573d6000803e3d6000fd5b505050506040513d604081101561212657600080fd5b508051602090910151909590945092505050565b60008060008060008a6001600160a01b0316630902f1ac6040518163ffffffff1660e01b815260040160606040518083038186803b15801561217b57600080fd5b505afa15801561218f573d6000803e3d6000fd5b505050506040513d60608110156121a557600080fd5b50805160209091015190925090508760006121cd826001600160701b038087169086166115d5565b9050888111156121fa578890506121f789846001600160701b0316866001600160701b03166115d5565b91505b6122058c8e84611a6e565b6122108b8e83611a6e565b818a03965080890395508c6001600160a01b0316636a627842896040518263ffffffff1660e01b815260040180826001600160a01b03168152602001915050602060405180830381600087803b15801561226957600080fd5b505af115801561227d573d6000803e3d6000fd5b505050506040513d602081101561229357600080fd5b5051969d959c50959a509398505050505050505050565b60008115806122c5575050808202828282816122c257fe5b04145b610325576040805162461bcd60e51b815260206004820152601460248201527f64732d6d6174682d6d756c2d6f766572666c6f77000000000000000000000000604482015290519081900360640190fd5b80516a636f6e736f6c652e6c6f67602083016000808483855afa505050505056fe50616e676f6c696e4272696467654d6967726174696f6e526f757465723a3a6c69717569646974795061697246726f6d2061646472657373203050616e676f6c696e4c6962726172793a20494e53554646494349454e545f414d4f554e5450616e676f6c696e4272696467654d6967726174696f6e526f757465723a204558504952454450616e676f6c696e4272696467654d6967726174696f6e526f757465723a3a6c697175696469747950616972546f2061646472657373203050616e676f6c696e4272696467654d6967726174696f6e526f757465723a3a63616e7420636f6e7665727420746f207468652073616d65206c697175696469747920706169727350616e676f6c696e4272696467654d6967726174696f6e526f757465723a3a7061697220646f65736e2774206d6174636820746865206d6967726174696f6e20746f6b656e50616e676f6c696e4272696467654d6967726174696f6e526f757465723a3a6d69677261746f72206e6f74207265676973746572656420666f72207468652070616972546865206d69677261746f7220646f65736e27742068617665207377617020737570706c7920666f72207468697320746f6b656e526f6c65733a206163636f756e7420646f6573206e6f74206861766520726f6c6550616e676f6c696e4272696467654d6967726174696f6e526f757465723a3a6d69677261746f72206e6f742072656769737465726564526f6c65733a206163636f756e7420697320746865207a65726f206164647265737350616e676f6c696e4272696467654d6967726174696f6e526f757465723a20556e617574686f72697a656450616e676f6c696e4272696467654d6967726174696f6e526f757465723a3a5061697220646f6573206e6f742068617665206f6e6520746f6b656e206d61746368696e675472616e7366657248656c7065723a205452414e534645525f46524f4d5f4641494c454450616e676f6c696e4272696467654d6967726174696f6e526f757465723a3a4469646e2774207969656c642074686520636f727265637420616d6f756e7450616e676f6c696e4c6962726172793a20494e53554646494349454e545f4c4951554944495459a264697066735822122038d079b545019b8fcde9c75b63fbc921a6e0b44805addbec5dcac08d7a699a2b64736f6c63430007060033526f6c65733a206163636f756e7420697320746865207a65726f2061646472657373",
  "linkReferences": {},
  "deployedLinkReferences": {}
}